{
  "_format": "hh-sol-artifact-1",
  "contractName": "Token",
  "sourceName": "contracts/Token.sol",
  "abi": [
    {
      "inputs": [
        {
          "internalType": "string",
          "name": "_name",
          "type": "string"
        },
        {
          "internalType": "string",
          "name": "_symbol",
          "type": "string"
        },
        {
          "internalType": "uint256",
          "name": "_initialSupply",
          "type": "uint256"
        }
      ],
      "stateMutability": "nonpayable",
      "type": "constructor"
    },
    {
      "anonymous": false,
      "inputs": [
        {
          "indexed": true,
          "internalType": "address",
          "name": "owner",
          "type": "address"
        },
        {
          "indexed": true,
          "internalType": "address",
          "name": "spender",
          "type": "address"
        },
        {
          "indexed": false,
          "internalType": "uint256",
          "name": "value",
          "type": "uint256"
        }
      ],
      "name": "Approval",
      "type": "event"
    },
    {
      "anonymous": false,
      "inputs": [
        {
          "indexed": true,
          "internalType": "address",
          "name": "buyer",
          "type": "address"
        },
        {
          "indexed": false,
          "internalType": "uint256",
          "name": "amount",
          "type": "uint256"
        },
        {
          "indexed": false,
          "internalType": "uint256",
          "name": "cost",
          "type": "uint256"
        }
      ],
      "name": "TokensPurchased",
      "type": "event"
    },
    {
      "anonymous": false,
      "inputs": [
        {
          "indexed": false,
          "internalType": "bool",
          "name": "success",
          "type": "bool"
        },
        {
          "indexed": false,
          "internalType": "string",
          "name": "message",
          "type": "string"
        }
      ],
      "name": "TransactionStatus",
      "type": "event"
    },
    {
      "anonymous": false,
      "inputs": [
        {
          "indexed": true,
          "internalType": "address",
          "name": "from",
          "type": "address"
        },
        {
          "indexed": true,
          "internalType": "address",
          "name": "to",
          "type": "address"
        },
        {
          "indexed": false,
          "internalType": "uint256",
          "name": "value",
          "type": "uint256"
        }
      ],
      "name": "Transfer",
      "type": "event"
    },
    {
      "anonymous": false,
      "inputs": [
        {
          "indexed": true,
          "internalType": "address",
          "name": "owner",
          "type": "address"
        },
        {
          "indexed": false,
          "internalType": "uint256",
          "name": "amount",
          "type": "uint256"
        }
      ],
      "name": "Withdrawal",
      "type": "event"
    },
    {
      "inputs": [
        {
          "internalType": "address",
          "name": "",
          "type": "address"
        },
        {
          "internalType": "address",
          "name": "",
          "type": "address"
        }
      ],
      "name": "allowance",
      "outputs": [
        {
          "internalType": "uint256",
          "name": "",
          "type": "uint256"
        }
      ],
      "stateMutability": "view",
      "type": "function"
    },
    {
      "inputs": [
        {
          "internalType": "address",
          "name": "_spender",
          "type": "address"
        },
        {
          "internalType": "uint256",
          "name": "_value",
          "type": "uint256"
        }
      ],
      "name": "approve",
      "outputs": [
        {
          "internalType": "bool",
          "name": "",
          "type": "bool"
        }
      ],
      "stateMutability": "nonpayable",
      "type": "function"
    },
    {
      "inputs": [
        {
          "internalType": "address",
          "name": "",
          "type": "address"
        }
      ],
      "name": "balanceOf",
      "outputs": [
        {
          "internalType": "uint256",
          "name": "",
          "type": "uint256"
        }
      ],
      "stateMutability": "view",
      "type": "function"
    },
    {
      "inputs": [
        {
          "internalType": "uint256",
          "name": "_amount",
          "type": "uint256"
        }
      ],
      "name": "buyTokens",
      "outputs": [],
      "stateMutability": "payable",
      "type": "function"
    },
    {
      "inputs": [],
      "name": "name",
      "outputs": [
        {
          "internalType": "string",
          "name": "",
          "type": "string"
        }
      ],
      "stateMutability": "view",
      "type": "function"
    },
    {
      "inputs": [],
      "name": "owner",
      "outputs": [
        {
          "internalType": "address",
          "name": "",
          "type": "address"
        }
      ],
      "stateMutability": "view",
      "type": "function"
    },
    {
      "inputs": [],
      "name": "symbol",
      "outputs": [
        {
          "internalType": "string",
          "name": "",
          "type": "string"
        }
      ],
      "stateMutability": "view",
      "type": "function"
    },
    {
      "inputs": [],
      "name": "tokensForSale",
      "outputs": [
        {
          "internalType": "uint256",
          "name": "",
          "type": "uint256"
        }
      ],
      "stateMutability": "view",
      "type": "function"
    },
    {
      "inputs": [],
      "name": "totalSupply",
      "outputs": [
        {
          "internalType": "uint256",
          "name": "",
          "type": "uint256"
        }
      ],
      "stateMutability": "view",
      "type": "function"
    },
    {
      "inputs": [
        {
          "internalType": "address",
          "name": "_to",
          "type": "address"
        },
        {
          "internalType": "uint256",
          "name": "_value",
          "type": "uint256"
        }
      ],
      "name": "transfer",
      "outputs": [
        {
          "internalType": "bool",
          "name": "",
          "type": "bool"
        }
      ],
      "stateMutability": "nonpayable",
      "type": "function"
    },
    {
      "inputs": [
        {
          "internalType": "address",
          "name": "_from",
          "type": "address"
        },
        {
          "internalType": "address",
          "name": "_to",
          "type": "address"
        },
        {
          "internalType": "uint256",
          "name": "_value",
          "type": "uint256"
        }
      ],
      "name": "transferFrom",
      "outputs": [
        {
          "internalType": "bool",
          "name": "",
          "type": "bool"
        }
      ],
      "stateMutability": "nonpayable",
      "type": "function"
    },
    {
      "inputs": [],
      "name": "withdrawEther",
      "outputs": [],
      "stateMutability": "nonpayable",
      "type": "function"
    }
  ],
  "bytecode": "0x60806040523480156200001157600080fd5b5060405162001cba38038062001cba83398181016040528101906200003791906200025a565b82600090805190602001906200004f92919062000121565b5081600190805190602001906200006892919062000121565b508060028190555033600360006101000a81548173ffffffffffffffffffffffffffffffffffffffff021916908373ffffffffffffffffffffffffffffffffffffffff160217905550600281620000c0919062000349565b600481905550600281620000d5919062000349565b600560003373ffffffffffffffffffffffffffffffffffffffff1673ffffffffffffffffffffffffffffffffffffffff168152602001908152602001600020819055505050506200049e565b8280546200012f90620003c1565b90600052602060002090601f0160209004810192826200015357600085556200019f565b82601f106200016e57805160ff19168380011785556200019f565b828001600101855582156200019f579182015b828111156200019e57825182559160200191906001019062000181565b5b509050620001ae9190620001b2565b5090565b5b80821115620001cd576000816000905550600101620001b3565b5090565b6000620001e8620001e28462000316565b620002e2565b9050828152602081018484840111156200020157600080fd5b6200020e8482856200038b565b509392505050565b600082601f8301126200022857600080fd5b81516200023a848260208601620001d1565b91505092915050565b600081519050620002548162000484565b92915050565b6000806000606084860312156200027057600080fd5b600084015167ffffffffffffffff8111156200028b57600080fd5b620002998682870162000216565b935050602084015167ffffffffffffffff811115620002b757600080fd5b620002c58682870162000216565b9250506040620002d88682870162000243565b9150509250925092565b6000604051905081810181811067ffffffffffffffff821117156200030c576200030b62000455565b5b8060405250919050565b600067ffffffffffffffff82111562000334576200033362000455565b5b601f19601f8301169050602081019050919050565b6000620003568262000381565b9150620003638362000381565b925082620003765762000375620003f7565b5b828204905092915050565b6000819050919050565b60005b83811015620003ab5780820151818401526020810190506200038e565b83811115620003bb576000848401525b50505050565b60006002820490506001821680620003da57607f821691505b60208210811415620003f157620003f062000426565b5b50919050565b7f4e487b7100000000000000000000000000000000000000000000000000000000600052601260045260246000fd5b7f4e487b7100000000000000000000000000000000000000000000000000000000600052602260045260246000fd5b7f4e487b7100000000000000000000000000000000000000000000000000000000600052604160045260246000fd5b6200048f8162000381565b81146200049b57600080fd5b50565b61180c80620004ae6000396000f3fe6080604052600436106100a75760003560e01c806370a082311161006457806370a08231146101c35780637362377b146102005780638da5cb5b1461021757806395d89b4114610242578063a9059cbb1461026d578063dd62ed3e146102aa576100a7565b806306fdde03146100ac578063095ea7b3146100d757806312aef8c31461011457806318160ddd1461013f57806323b872dd1461016a5780633610724e146101a7575b600080fd5b3480156100b857600080fd5b506100c16102e7565b6040516100ce9190611426565b60405180910390f35b3480156100e357600080fd5b506100fe60048036038101906100f99190610ffd565b610375565b60405161010b91906113af565b60405180910390f35b34801561012057600080fd5b50610129610467565b6040516101369190611548565b60405180910390f35b34801561014b57600080fd5b5061015461046d565b6040516101619190611548565b60405180910390f35b34801561017657600080fd5b50610191600480360381019061018c9190610fae565b610473565b60405161019e91906113af565b60405180910390f35b6101c160048036038101906101bc9190611039565b6107d5565b005b3480156101cf57600080fd5b506101ea60048036038101906101e59190610f49565b610a33565b6040516101f79190611548565b60405180910390f35b34801561020c57600080fd5b50610215610a4b565b005b34801561022357600080fd5b5061022c610c37565b6040516102399190611394565b60405180910390f35b34801561024e57600080fd5b50610257610c5d565b6040516102649190611426565b60405180910390f35b34801561027957600080fd5b50610294600480360381019061028f9190610ffd565b610ceb565b6040516102a191906113af565b60405180910390f35b3480156102b657600080fd5b506102d160048036038101906102cc9190610f72565b610efa565b6040516102de9190611548565b60405180910390f35b600080546102f490611707565b80601f016020809104026020016040519081016040528092919081815260200182805461032090611707565b801561036d5780601f106103425761010080835404028352916020019161036d565b820191906000526020600020905b81548152906001019060200180831161035057829003601f168201915b505050505081565b600081600660003373ffffffffffffffffffffffffffffffffffffffff1673ffffffffffffffffffffffffffffffffffffffff16815260200190815260200160002060008573ffffffffffffffffffffffffffffffffffffffff1673ffffffffffffffffffffffffffffffffffffffff168152602001908152602001600020819055508273ffffffffffffffffffffffffffffffffffffffff163373ffffffffffffffffffffffffffffffffffffffff167f8c5be1e5ebec7d5bd14f71427d1e84f3dd0314c0f7b2291e5b200ac8c7c3b925846040516104559190611548565b60405180910390a36001905092915050565b60045481565b60025481565b6000600560008573ffffffffffffffffffffffffffffffffffffffff1673ffffffffffffffffffffffffffffffffffffffff168152602001908152602001600020548211156104f7576040517f08c379a00000000000000000000000000000000000000000000000000000000081526004016104ee906114e8565b60405180910390fd5b600660008573ffffffffffffffffffffffffffffffffffffffff1673ffffffffffffffffffffffffffffffffffffffff16815260200190815260200160002060003373ffffffffffffffffffffffffffffffffffffffff1673ffffffffffffffffffffffffffffffffffffffff168152602001908152602001600020548211156105b6576040517f08c379a00000000000000000000000000000000000000000000000000000000081526004016105ad906114c8565b60405180910390fd5b600073ffffffffffffffffffffffffffffffffffffffff168373ffffffffffffffffffffffffffffffffffffffff161415610626576040517f08c379a000000000000000000000000000000000000000000000000000000000815260040161061d90611488565b60405180910390fd5b81600560008673ffffffffffffffffffffffffffffffffffffffff1673ffffffffffffffffffffffffffffffffffffffff16815260200190815260200160002060008282546106759190611658565b9250508190555081600560008573ffffffffffffffffffffffffffffffffffffffff1673ffffffffffffffffffffffffffffffffffffffff16815260200190815260200160002060008282546106cb91906115a8565b9250508190555081600660008673ffffffffffffffffffffffffffffffffffffffff1673ffffffffffffffffffffffffffffffffffffffff16815260200190815260200160002060003373ffffffffffffffffffffffffffffffffffffffff1673ffffffffffffffffffffffffffffffffffffffff168152602001908152602001600020600082825461075e9190611658565b925050819055508273ffffffffffffffffffffffffffffffffffffffff168473ffffffffffffffffffffffffffffffffffffffff167fddf252ad1be2c89b69c2b068fc378daa952ba7f163c4a11628f55a4df523b3ef846040516107c29190611548565b60405180910390a3600190509392505050565b60008111610818576040517f08c379a000000000000000000000000000000000000000000000000000000000815260040161080f90611508565b60405180910390fd5b60045481111561085d576040517f08c379a000000000000000000000000000000000000000000000000000000000815260040161085490611468565b60405180910390fd5b670de0b6b3a76400008161087191906115fe565b34146108b2576040517f08c379a00000000000000000000000000000000000000000000000000000000081526004016108a990611528565b60405180910390fd5b80600560003373ffffffffffffffffffffffffffffffffffffffff1673ffffffffffffffffffffffffffffffffffffffff168152602001908152602001600020600082825461090191906115a8565b92505081905550806004600082825461091a9190611658565b925050819055503373ffffffffffffffffffffffffffffffffffffffff16600360009054906101000a900473ffffffffffffffffffffffffffffffffffffffff1673ffffffffffffffffffffffffffffffffffffffff167fddf252ad1be2c89b69c2b068fc378daa952ba7f163c4a11628f55a4df523b3ef836040516109a09190611548565b60405180910390a33373ffffffffffffffffffffffffffffffffffffffff167f8fafebcaf9d154343dad25669bfa277f4fbacd7ac6b0c4fed522580e040a0f3382346040516109f0929190611563565b60405180910390a27fa3e02cdfbc3baebcadd55c55d99c2a4caf3eee48174e73a6116e41c88866b0106001604051610a2891906113ca565b60405180910390a150565b60056020528060005260406000206000915090505481565b600360009054906101000a900473ffffffffffffffffffffffffffffffffffffffff1673ffffffffffffffffffffffffffffffffffffffff163373ffffffffffffffffffffffffffffffffffffffff1614610adb576040517f08c379a0000000000000000000000000000000000000000000000000000000008152600401610ad290611448565b60405180910390fd5b600047905060008111610b23576040517f08c379a0000000000000000000000000000000000000000000000000000000008152600401610b1a906114a8565b60405180910390fd5b600360009054906101000a900473ffffffffffffffffffffffffffffffffffffffff1673ffffffffffffffffffffffffffffffffffffffff166108fc829081150290604051600060405180830381858888f19350505050158015610b8b573d6000803e3d6000fd5b50600360009054906101000a900473ffffffffffffffffffffffffffffffffffffffff1673ffffffffffffffffffffffffffffffffffffffff167f7fcf532c15f0a6db0bd6d0e038bea71d30d808c7d98cb3bf7268a95bf5081b6582604051610bf49190611548565b60405180910390a27fa3e02cdfbc3baebcadd55c55d99c2a4caf3eee48174e73a6116e41c88866b0106001604051610c2c91906113f8565b60405180910390a150565b600360009054906101000a900473ffffffffffffffffffffffffffffffffffffffff1681565b60018054610c6a90611707565b80601f0160208091040260200160405190810160405280929190818152602001828054610c9690611707565b8015610ce35780601f10610cb857610100808354040283529160200191610ce3565b820191906000526020600020905b815481529060010190602001808311610cc657829003601f168201915b505050505081565b6000600560003373ffffffffffffffffffffffffffffffffffffffff1673ffffffffffffffffffffffffffffffffffffffff16815260200190815260200160002054821115610d6f576040517f08c379a0000000000000000000000000000000000000000000000000000000008152600401610d66906114e8565b60405180910390fd5b600073ffffffffffffffffffffffffffffffffffffffff168373ffffffffffffffffffffffffffffffffffffffff161415610ddf576040517f08c379a0000000000000000000000000000000000000000000000000000000008152600401610dd690611488565b60405180910390fd5b81600560003373ffffffffffffffffffffffffffffffffffffffff1673ffffffffffffffffffffffffffffffffffffffff1681526020019081526020016000206000828254610e2e9190611658565b9250508190555081600560008573ffffffffffffffffffffffffffffffffffffffff1673ffffffffffffffffffffffffffffffffffffffff1681526020019081526020016000206000828254610e8491906115a8565b925050819055508273ffffffffffffffffffffffffffffffffffffffff163373ffffffffffffffffffffffffffffffffffffffff167fddf252ad1be2c89b69c2b068fc378daa952ba7f163c4a11628f55a4df523b3ef84604051610ee89190611548565b60405180910390a36001905092915050565b6006602052816000526040600020602052806000526040600020600091509150505481565b600081359050610f2e816117a8565b92915050565b600081359050610f43816117bf565b92915050565b600060208284031215610f5b57600080fd5b6000610f6984828501610f1f565b91505092915050565b60008060408385031215610f8557600080fd5b6000610f9385828601610f1f565b9250506020610fa485828601610f1f565b9150509250929050565b600080600060608486031215610fc357600080fd5b6000610fd186828701610f1f565b9350506020610fe286828701610f1f565b9250506040610ff386828701610f34565b9150509250925092565b6000806040838503121561101057600080fd5b600061101e85828601610f1f565b925050602061102f85828601610f34565b9150509250929050565b60006020828403121561104b57600080fd5b600061105984828501610f34565b91505092915050565b61106b8161168c565b82525050565b61107a8161169e565b82525050565b600061108b8261158c565b6110958185611597565b93506110a58185602086016116d4565b6110ae81611797565b840191505092915050565b60006110c6602583611597565b91507f4f6e6c7920746865206f776e65722063616e2063616c6c20746869732066756e60008301527f6374696f6e0000000000000000000000000000000000000000000000000000006020830152604082019050919050565b600061112c602483611597565b91507f4e6f7420656e6f75676820746f6b656e7320617661696c61626c6520666f722060008301527f73616c65000000000000000000000000000000000000000000000000000000006020830152604082019050919050565b6000611192600f83611597565b91507f496e76616c6964206164647265737300000000000000000000000000000000006000830152602082019050919050565b60006111d2601983611597565b91507f546f6b656e207075726368617365207375636365737366756c000000000000006000830152602082019050919050565b6000611212601483611597565b91507f4e6f20457468657220746f2077697468647261770000000000000000000000006000830152602082019050919050565b6000611252601683611597565b91507f496e73756666696369656e7420616c6c6f77616e6365000000000000000000006000830152602082019050919050565b6000611292601483611597565b91507f496e73756666696369656e742062616c616e63650000000000000000000000006000830152602082019050919050565b60006112d2601f83611597565b91507f596f75206d75737420627579206174206c65617374206f6e6520746f6b656e006000830152602082019050919050565b6000611312601b83611597565b91507f4574686572207769746864726177616c207375636365737366756c00000000006000830152602082019050919050565b6000611352601583611597565b91507f496e636f72726563742045746865722076616c756500000000000000000000006000830152602082019050919050565b61138e816116ca565b82525050565b60006020820190506113a96000830184611062565b92915050565b60006020820190506113c46000830184611071565b92915050565b60006040820190506113df6000830184611071565b81810360208301526113f0816111c5565b905092915050565b600060408201905061140d6000830184611071565b818103602083015261141e81611305565b905092915050565b600060208201905081810360008301526114408184611080565b905092915050565b60006020820190508181036000830152611461816110b9565b9050919050565b600060208201905081810360008301526114818161111f565b9050919050565b600060208201905081810360008301526114a181611185565b9050919050565b600060208201905081810360008301526114c181611205565b9050919050565b600060208201905081810360008301526114e181611245565b9050919050565b6000602082019050818103600083015261150181611285565b9050919050565b60006020820190508181036000830152611521816112c5565b9050919050565b6000602082019050818103600083015261154181611345565b9050919050565b600060208201905061155d6000830184611385565b92915050565b60006040820190506115786000830185611385565b6115856020830184611385565b9392505050565b600081519050919050565b600082825260208201905092915050565b60006115b3826116ca565b91506115be836116ca565b9250827fffffffffffffffffffffffffffffffffffffffffffffffffffffffffffffffff038211156115f3576115f2611739565b5b828201905092915050565b6000611609826116ca565b9150611614836116ca565b9250817fffffffffffffffffffffffffffffffffffffffffffffffffffffffffffffffff048311821515161561164d5761164c611739565b5b828202905092915050565b6000611663826116ca565b915061166e836116ca565b92508282101561168157611680611739565b5b828203905092915050565b6000611697826116aa565b9050919050565b60008115159050919050565b600073ffffffffffffffffffffffffffffffffffffffff82169050919050565b6000819050919050565b60005b838110156116f25780820151818401526020810190506116d7565b83811115611701576000848401525b50505050565b6000600282049050600182168061171f57607f821691505b6020821081141561173357611732611768565b5b50919050565b7f4e487b7100000000000000000000000000000000000000000000000000000000600052601160045260246000fd5b7f4e487b7100000000000000000000000000000000000000000000000000000000600052602260045260246000fd5b6000601f19601f8301169050919050565b6117b18161168c565b81146117bc57600080fd5b50565b6117c8816116ca565b81146117d357600080fd5b5056fea2646970667358221220f7c00b64d879430020f9dbd450874abe91d7d6882d28ff2f7bff849fa03d1e9c64736f6c63430008000033",
  "linkReferences": {},
  "deployedLinkReferences": {}
}